:100000000C945B060C9483060C9483060C94830674
:100010000C9483060C9483060C9483060C9483063C
:100020000C9483060C9483060C946B0E0C94DA0EDD
:100030000C9483060C9483060C9483060C9483061C
:100040000C9483060C9483060C9483060C9483060C
:100050000C9483060C9483060C9483060C940C1168
:100060000C9483060C9483060C9483060C948306EC
:100070000C9483060C9483060C9483060C948306DC
:100080000C9483060C9483060C9483060C948306CC
:100090000C9483060C9483060C9483060C948306BC
:1000A0000C9483060C9483060C94830600000000D5
:1000B000003E5B4F5B3E3E6B4F6B3E1C3E7C3E1CEE
:1000C000183C7E3C181C577D571C1C5E7F5E1C0034
:1000D000183C1800FFE7C3E7FF0018241800FFE7EB
:1000E000DBE7FF30483A060E2629792926407F05AE
:1000F0000507407F05253F5A3CE73C5A7F3E1C1CC4
:1001000008081C1C3E7F14227F22145F5F005F5F83
:1001100006097F017F006689956A6060606060946F
:10012000A2FFA29408047E040810207E2010080874
:100130002A1C08081C2A08081E101010100C1E0C7F
:100140001E0C30383E3830060E3E0E060000000011
:100150000000005F00000007000700147F147F14F8
:10016000242A7F2A1223130864623649562050003D
:1001700008070300001C2241000041221C002A1C29
:100180007F1C2A08083E0808008070300008080814
:100190000808000060600020100804023E51494534
:1001A0003E00427F400072494949462141494D3352
:1001B0001814127F1027454545393C4A49493141B9
:1001C000211109073649494936464949291E000087
:1001D00014000000403400000008142241141414DC
:1001E0001414004122140802015909063E415D59C8
:1001F0004E7C1211127C7F494949363E41414122D1
:100200007F4141413E7F494949417F090909013EFA
:10021000414151737F0808087F00417F4100204021
:10022000413F017F081422417F404040407F021C33
:10023000027F7F0408107F3E4141413E7F0909094A
:10024000063E4151215E7F09192946264949493216
:1002500003017F01033F4040403F1F2040201F3FDC
:100260004038403F63140814630304780403615961
:10027000494D43007F4141410204081020004141A3
:10028000417F04020102044040404040000307084F
:100290000020545478407F2844443838444444284B
:1002A000384444287F385454541800087E090218F2
:1002B000A4A49C787F0804047800447D400020407A
:1002C000403D007F1028440000417F40007C0478BE
:1002D00004787C080404783844444438FC18242406
:1002E0001818242418FC7C08040408485454542486
:1002F00004043F44243C4040207C1C2040201C3C03
:100300004030403C44281028444C9090907C4464F9
:10031000544C44000836410000007700000041368C
:10032000080002010204023C2623263C1EA1A16112
:10033000123A4040207A3854545559215555794144
:100340002154547841215554784020545579400C1B
:100350001E527212395555555939545454593955FC
:100360005454580000457C410002457D420001453F
:100370007C40F0292429F0F0282528F07C545545AC
:10038000002054547C547C0A097F4932494949323F
:100390003248484832324A4848303A4141217A3A54
:1003A00042402078009DA0A07D39444444393D401E
:1003B00040403D3C24FF2424487E4943662B2FFCCB
:1003C0002F2BFF0929F620C0887E09032054547979
:1003D000410000447D413048484A32384040227A4A
:1003E000007A0A0A727D0D19317D2629292F2826C7
:1003F0002929292630484D402038080808080808CF
:100400000808382F10C8ACBA2F102834FA00007B27
:10041000000008142A142222142A1408950022002D
:1004200095AA005500AAAA55AA55AA000000FF00E7
:10043000101010FF00141414FF001010FF00FF1024
:1004400010F010F0141414FC001414F700FF000056
:10045000FF00FF1414F404FC141417101F10101FD5
:10046000101F1414141F00101010F0000000001FC3
:10047000101010101F10101010F010000000FF10CE
:100480001010101010101010FF10000000FF1400CA
:1004900000FF00FF00001F10170000FC04F41414FC
:1004A0001710171414F404F40000FF00F7141414C8
:1004B00014141414F700F7141414171410101F1048
:1004C0001F141414F4141010F010F000001F101F6B
:1004D0000000001F14000000FC140000F010F010D9
:1004E00010FF10FF141414FF141010101F00000050
:1004F00000F010FFFFFFFFFFF0F0F0F0F0FFFFFF54
:100500000000000000FFFF0F0F0F0F0F38444438AA
:10051000447C2A2A3E147E02020606027E027E02E5
:1005200063554941633844443C04407E201E200604
:10053000027E020299A5E7A5991C2A492A1C4C7241
:1005400001724C304A4D4D303048784830BC625AC8
:10055000463D3E494949007E0101017E2A2A2A2A58
:100560002A44445F444440514A444040444A514034
:100570000000FF0103E080FF000008086B6B0836F5
:1005800012362436060F090F060000181800000066
:100590001010003040FF0101001F01011E00191D55
:1005A0001712003C3C3C3C0000000000F0F89C8E20
:1005B0008783878E9CF8F00000FEFF03030303038C
:1005C000070EFCF80000FEFF0303030303070EFC05
:1005D000F80000FFFF00000000000000FFFF000027
:1005E000FEFF8383838383C7EE7C380000F8FC0E14
:1005F00007030303070EFCF800003F7FE0C0808084
:10060000C0E07F3FFFFF01010101010101FFFF0089
:1006100000FFFF0C0C0C0C1C3E77E3C100007FFFB9
:10062000C0C0C0C0C0E0703F1F00001F3F70E0C0EE
:10063000C0C0E0703F1F00007FFFC1C1C1C1C1E366
:10064000773E1C00001F3F70E0C0C0C0E0703F1F3D
:10065000000000000001FFFF01000000D5F08D1434
:10066000A1C881CFD9F1AF20000808000000000028
:100670000000007E93A5C993A5C97E7E87A79189B6
:10068000E5E17E7E81919DB989817E7E81BD8585F2
:10069000A5817E7E81BDA5A5BD817E7EE7E78181A6
:1006A000E7E77E7E81BD8989B9817E7EFFFFFFFFFE
:1006B000FFFF7E7EBDDBE7E7DBBD7E0404040300B5
:1006C00007070704010303020207000401000000FA
:1006D0000707070101000000000100010000000001
:1006E0000001000100000000000100010300000003
:1006F00000050503030000000005050003000000DD
:1007000000030303030000000001030505000000CF
:1007100000010005050000000001000006000000C7
:10072000000100060606000005050501060002029C
:100730000505050102020200050505101000000074
:10074000000000C04040C0000000000000000000A9
:10075000000000030202030000000000000000008F
:1007600000C04040C0C04040C00000000000000089
:10077000000302020303020203000000000000C0A5
:100780004040C0C04040C0C04040C0000000000326
:1007900002020303020203030202030000C04040FE
:1007A000C0C04040C0C04040C0C04040C003020282
:1007B0000303020203030202030302020300000018
:1007C000000000F09090F000000000000000000029
:1007D0000000000704040700000000000000000003
:1007E000000000FC6464FC00000000000000000049
:1007F0000000003F26263F0000000000000000002F
:10080000000000FF9999FF000000000000000000B8
:10081000000000FF9999FF000000000000000000A8
:1008200000F09090F0F09090F000000000000000C8
:10083000000F09090F0F09090F000000000000FC5C
:100840006464FCFC6464FCFC6464FC000000003F25
:1008500026263F3F26263F3F26263F000000000079
:100860000000000000F09090F00000000000000088
:10087000000F09090F0F09090F0000000000000018
:1008800000F09090F0000000000000000000000068
:10089000000F09090F0F09090F00000000000000F8
:1008A00000F09090F0F09090F00000000000000048
:1008B000000F09090F000000000000000000000008
:1008C00000F09090F0F09090F00000000000000028
:1008D00000000000000F09090F00000000000000E8
:1008E00000000000000000FC6464FC000000003C0C
:1008F00024243C3C24243C3F26263F00000000FCEE
:100900006464FC0000000000000000000000003FE4
:1009100026263F3C24243C3C24243C00000000FCD0
:100920006464FC3C24243C3C24243C000000003F44
:1009300026263F0000000000000000000000003CF0
:1009400024243C3C24243CFC6464FC0000000000A3
:10095000000000000000003F26263F00000000FCD1
:100960006464FCC04040C0FC6464FC000000003FC4
:1009700026263F030202033F26263F00000000C058
:100980004040C0FC6464FCC04040C0000000000364
:100990000202033F26263F0302020300000000007C
:1009A0000000000000000000000000000000000047
:1009B00000000000000000000000000000080B0024
:1009C00002020200000904000001020200000524E6
:1009D000001001052401010104240206052406007B
:1009E000010705810310004009040100020A00000C
:1009F00000070502024000000705830240000004D2
:100A000003090412010002EF020140412336800075
:100A1000010102030141726475696E6F204C4C4301
:100A20000041726475696E6F204C656F6E6172640F
:100A30006F0010100F0909F90101F909090F00EF02
:100A40002929EF00000000FF8080FF00000000FF68
:100A50008080FF00FF0101FF00000000000000FF98
:100A600001017949FF80809F9090909090F000FF65
:100A700080809E9249C909090F00FF010179494907
:100A8000494949CF92939090F000F39292929292BA
:100A90009E8080FFFF0101F90909C949494949CFF1
:100AA00000FF0101FF80809F909093929E8080FFC5
:100AB00000FF8080F98989F90101FF00FF0101F938
:100AC0000909F901FC0404FC8080FF00FF8080FF1D
:100AD0000000FF8001F90909F90101FF00FF010190
:100AE000794949C980FF0000FF8080FF00FF8080B6
:100AF0009E92929309090F00000000000000000080
:100B0000000000009090F0000000000000000000D5
:100B100000000000000000FF0101F90909F90101CE
:100B2000FF007FC1000000FF80809F90909F808029
:100B3000FF00000F013FE00000E03F01C17F00FF28
:100B400001017949F880879C9C8780780F0000FF1D
:100B500080809E9249C909090F00FF010179494926
:100B6000790103FE92939090F000FF8080F830624C
:100B7000C68E9BF17F7F6363E3E3030303E3E363D9
:100B8000637F7F0000000000FFFF000000FFFF0008
:100B900000000000007F7F6363637F7F0000FFFF32
:100BA000030303FF00FFFF030303FFFF0000FFFF3A
:100BB000000000FFFF000000000000000000000037
:100BC000FFFF0303FF000000000000000000000022
:100BD000FFFF000003E3E36363636363637F7F00FE
:100BE00000FFFF0300C7C7C6C6C6FEFE0000000028
:100BF00000FFFFC00303E3E36363636363637F7F1B
:100C000000000000C0C0C7C7C6C6C6060606FEFE76
:100C10000000000000000000FFFF808080FFFF0058
:100C200000000000000000000101010101010100BD
:100C30000000000000FFFF808080FFFF0000FFFF3A
:100C40008080808F0001010101010101000001018C
:100C5000010101018F8C8C8C8C8C8CFCFC000000C1
:100C6000FFFF80800101010101010101010000007D
:100C700001010101808F8F8C8C8C8C8C8C8CFC0002
:100C800000FCFC8C010101010101010101010100D5
:100C9000000101018C8C8C8C8C8F8F808080FFFFF9
:100CA0000000000001010101010101010101010138
:100CB00000000000891111241FBECFEFDAE0DEBF73
:100CC000CDBF12E0A0E0B1E0ECEFF7E302C0059089
:100CD0000D92A23CB107D9F727E0A2ECB2E001C027
:100CE0001D92AF3AB207E1F716E0CBE5D6E004C0BB
:100CF0002197FE010E94EF1BCA35D107C9F70E9458
:100D0000A6110C94FC1B0C940000EBE5F3E0A0E0B2
:100D1000B8E000800EBC8111012C1197A0FDFDCF21
:100D20000192B9F70DB40895480F592F511D1416AB
:100D3000150684F5803891056CF597FF02C090E0A8
:100D400080E04138510514F040E850E0481BFB01B9
:100D5000E770FF2721E001C0220FEA95EAF777FF4D
:100D600002C0695F7F4FFB0133E0F595E7953A9547
:100D7000E1F7F695FE2FEE27F795E795E80FF91FB7
:100D8000E55AFC4F415030F08191DF011197822BE1
:100D90008C93F8CF089580E0EBE5F3E081118FEFBD
:100DA000002481938193819381930394D1F70895D3
:100DB000FC0180915A03882311F13FB7F89482E037
:100DC0008093E9002091F200822F90E01816190616
:100DD00014F481E090E0882339F0289844E64093A9
:100DE00059034091F1004083222339F02091F20011
:100DF000211103C02BE62093E8003FBF08958FEF39
:100E00009FEF08952FB7F89483E08093E9009091C5
:100E1000E800892F807295FF04C09091F20080E471
:100E2000891B2FBF08958091510381110DC082E06D
:100E300080934D0384E080934E03109250031092F0
:100E40004F0381E0809351038DE493E00895CF93A5
:100E5000DF931F92CDB7DEB76983DC01ED91FC9182
:100E60000280F381E02D41E050E0BE016F5F7F4FD3
:100E700009950F90DF91CF91089583E08093E90069
:100E80008091F200882319F08AE38093E8000895A6
:100E90000E94020790E00895CF93DF931F92CDB791
:100EA000DEB7FC018485958597FD08C02FEF3FEFE5
:100EB000358724870F90DF91CF910895CE01019659
:100EC0000E94D806019719F4898190E0F3CF8FEF43
:100ED0009FEFF0CF0F931F93CF93DF931F92CDB768
:100EE000DEB78C01FC018485958597FF0BC0CE0190
:100EF00001960E94D806019771F4898190E0F8016B
:100F000095878487F801848595850F90DF91CF912F
:100F10001F910F9108958FEF9FEFF1CFFC01848512
:100F2000958597FD0BC09FB7F89482E08093E90008
:100F30008091F2009FBF90E0019608959FB7F894CA
:100F400082E08093E9008091F2009FBF90E00895D5
:100F50004091470350914803209145033091460347
:100F600042175307B4F49091E8009570E1F3909123
:100F7000E80092FD19C08093F100809147039091A1
:100F8000480301968F739927892B19F48EEF80936C
:100F9000E80080914703909148030196909348039D
:100FA0008093470381E0089580E00895DF92EF92F7
:100FB000FF920F931F93CF93DF93D82E8A01EB01FB
:100FC0007B01E40EF51ECE15DF0559F0D7FE12C0E9
:100FD000FE0184910E94A80721968111F4CF0FEFA2
:100FE0001FEFC801DF91CF911F910F91FF90EF90FC
:100FF000DF9008958881EECF0F931F93CF93DF93F7
:101000001F92CDB7DEB782E0898342E450E06DEBFA
:1010100079E080E80E94D6070E941307DC0112964F
:101020000D911C910115110589F0D801ED91FC91EC
:101030000280F381E02DBE016F5F7F4FC8010995EB
:1010400097FD04C0F80100851185ECCF89810F90D0
:10105000DF91CF911F910F910895615030F0209151
:10106000F100FC0120830196F8CF289884E6809354
:1010700059030895AF92BF92CF92DF92EF92FF9201
:101080000F931F93CF93DF936C017B018B01040FB0
:10109000151FEB015E01AE18BF08C017D10759F04C
:1010A0006991D601ED91FC910190F081E02DC6018E
:1010B0000995892B79F7C501DF91CF911F910F9188
:1010C000FF90EF90DF90CF90BF90AF9008953FB723
:1010D000F8948091CB029091CC02A091CD02B09176
:1010E000CE0226B5A89B05C02F3F19F00196A11D81
:1010F000B11D3FBFBA2FA92F982F8827BC01CD0162
:10110000620F711D811D911D42E0660F771F881FC0
:10111000991F4A95D1F708958F929F92AF92BF92EF
:10112000CF92DF92EF92FF926B017C010E946708E1
:101130004B015C01C114D104E104F104B9F00E9437
:101140006708681979098A099B09683E7340810517
:10115000910580F321E0C21AD108E108F10888EE78
:10116000880E83E0981EA11CB11CE4CFFF90EF9085
:10117000DF90CF90BF90AF909F908F9008958F9207
:101180009F92AF92BF92CF92DF92EF92FF920F9316
:101190001F93CF93DF936C017B018A0180910C0137
:1011A000882309F45CC080915A03882309F457C04E
:1011B00080914C0380FF05C08091E00082608093A5
:1011C000E000E801B12C8AEFA82E93E0892E2AE3F3
:1011D000922E209711F4BB20D9F10E9402078111B1
:1011E0000AC0AA94AA20D9F161E070E080E090E002
:1011F0000E948C08EECF8C171D0611F00CF08C2F7E
:101200009FB7F8948092E9002091E80025FD02C084
:101210009FBFDFCF282F30E0C21BD30BF7018150D7
:1012200020F041914093F100FACFE20EF31EBB2073
:1012300021F09092E800B12CEBCF8091E80085FD81
:10124000E7CF9092E800BB24B394209709F3F3CF43
:101250005D9884E680934B03101611063CF081E004
:1012600090E0F6019383828310E000E0C801DF91F3
:10127000CF911F910F91FF90EF90DF90CF90BF9093
:10128000AF909F908F9008952FB7F8946091C70208
:101290007091C8028091C9029091CA022FBF08952F
:1012A0002F923F924F925F926F927F928F929F9276
:1012B000AF92BF92CF92DF92EF92FF920F931F9364
:1012C000CF93DF9300D000D01F92CDB7DEB75D8300
:1012D0004C835901EC2D402F50E0DA01A80FB91FC3
:1012E000109709F442C0803891050CF03EC09B0174
:1012F0002E0D311D232BC9F12C813D81232BA9F10A
:10130000362F3770398313E0759567951A95E1F795
:10131000262FA038B10514F000E8081BA1E0FE2D2F
:10132000F77009F4A0E0E694E694E694EA0EDB0197
:10133000AE0DB11D19971CF0F8E0EF2EE61ADB0197
:10134000B695BA2FAA27B795A7958A0F9B1FF98044
:10135000AF2DFF0CBB0BE33009F435C1F0F4E130E5
:1013600009F4EEC0E23009F453C00F900F900F90D3
:101370000F900F90DF91CF911F910F91FF90EF9001
:10138000DF90CF90BF90AF909F908F907F906F90A5
:101390005F904F903F902F900895EA3F09F48CC0E2
:1013A000EB3F19F7E22FE61BEE15F8F6FC01E55AC4
:1013B000FC4F6F01B12CA12CEC81FD81A01608F02F
:1013C000ACC0EA0DFB1D8490912C0A2E02C0880C43
:1013D000991C0A94E2F727FD07C0F6017080F82DEA
:1013E000F0957F22F6017082F980FF2051F02730BE
:1013F00044F4F601E058FF4F892C809490809820A7
:1014000090821FEFA11AB10A3FEFC31AD30AD4CFBB
:1014100066246A94712C098002C0660C771C0A94B9
:10142000E2F760947094572CE22FE61BEE1508F05B
:101430009CCFFC01E55AFC4F6F01B12CA12CEC8133
:10144000FD81A01650F5EA0DFB1DE491F0E01F01AF
:101450000A2E02C0220C331C0A94E2F727FD05C0B5
:10146000F6019080962092289082F980FF2071F0FA
:10147000273064F4460110E8810E911CF40140808D
:10148000E42DE5214E2E4328F4014082FFEFAF1AF0
:10149000BF0A1FEFC11AD10AD2CFE40FF51FFD8397
:1014A000EC8380589F4F2F5FBFCFE40FF51FFD8364
:1014B000EC8380589F4F2F5FE22FE61BEE1508F05C
:1014C00054CFFC01E55AFC4F6F01B12CA12CEC81EB
:1014D000FD81A01650F7EA0DFB1D8490912C0A2E79
:1014E00002C0880C991C0A94E2F727FD04C0F6019B
:1014F000708078287082F980FF2041F0273034F422
:10150000F601E058FF4F8080982890821FEFA11AC3
:10151000B10A3FEFC31AD30ADACFE40FF51FFD83F8
:10152000EC8380589F4F2F5F3DCFEC81FD81E40F0E
:10153000F51FFD83EC83A40EB51E80589F4F2F5FCF
:10154000E22FE61BEE1508F010CFFC01E55AFC4F28
:101550006F01912C812C801640F7F501E80DF91DE3
:101560006490712C0A2E02C0660C771C0A94E2F774
:1015700060947094EC81FD81E80DF91D4490512C2C
:101580000A2E02C0440C551C0A94E2F727FD08C03D
:10159000F6013080E32DE6213E2E3428F60130821C
:1015A000F980FF2049F027303CF4F601E058FF4F66
:1015B00060807620752870821FEF811A910A3FEFB4
:1015C000C31AD30AC8CFE02FF0E0855A9C4FA0E899
:1015D000B0E06D01CE1ADF0A4E1B5F0B4A01880C8A
:1015E000991CE1E0F0E05F01098002C0AA0CBB1C7D
:1015F0000A94E2F7B02E402F5E2DEC81FD81DC01D4
:1016000086019401F980CF93DF93ED01EF96EF9679
:10161000229665908590FF2059F06A9C30018A9C43
:10162000400167302CF4C8809094C920C728C99223
:1016300066233AF0CC908094C820C628CD920C94B2
:10164000220B11964A9529F75A9551F04B2D639527
:101650001124E20FF11DA00FB11DC00FD11DD9CF74
:10166000DF91CF91112481CECF92EF920F93E2E3DD
:10167000FAE00491E3E3FAE0E490442329F1E1E0A5
:10168000F0E03E2D377011F4F0E0E0E02E2D2695CD
:10169000269526952E0F3F2F311D029FF001039FA7
:1016A000F00D11244E9F90014F9F300D1124A90180
:1016B0004C5C554F2AEFC22E30E020E00E945009CA
:1016C0000F91EF90CF90089544E35AE0F3CFCF927B
:1016D000EF920F93CF93DF93DC01FA0104913196DF
:1016E000E4904E5F5F4F2223D1F0C1E0D0E09E2D09
:1016F000977011F4D0E0C0E0EE2DE695E695E69502
:10170000EC0FFD2FF11D0E9FE0010F9FD00D112456
:101710002C9FC0012D9F900D1124480F591F82E06E
:10172000C82E30E020E0CD010E945009DF91CF911A
:101730000F91EF90CF9008952D9A0895BC0190E0FD
:1017400080E00C948C088FB18095807F669B8860C8
:101750001C9B8460089590913F03982329F49091F5
:101760004003982381E009F480E00895CF93C82FC7
:101770000E94A30B982F9C2381E09C1380E0CF91C3
:10178000089580E00C94850680389105B8F46034A3
:101790007105A0F420E191E061FD94E060FD990FF6
:1017A00062FD9295687F269FD0011124A80FA55A4B
:1017B000BC4F8C9140FF03C0892B8C93089590956A
:1017C0008923FBCF2F923F924F925F926F927F922D
:1017D0008F929F92AF92BF92CF92DF92EF92FF9241
:1017E0000F931F93CF93DF937C016B018824839425
:1017F000912CD0E0C0E005E010E096EF692E772450
:101800007A942CEFA22EBB24BA94842F8470582E85
:10181000842F8270482E842F8870382E4170242E99
:10182000219682E0880E911CA80CB91C552091F0DD
:1018300041E0B8016C0D7D1DC7018C0F9D1F0E94FA
:10184000C40B41E0B6016C0F7D1FC8018E0D9F1DBA
:101850000E94C40B442091F041E0B601601B710B63
:10186000C7018C0F9D1F0E94C40B41E0B6016C1B89
:101870007D0BC8018E0D9F1D0E94C40B332091F07B
:1018800041E0B6016C0F7D1FC701801B910B0E94C8
:10189000C40B41E0B8016C0D7D1DC7018C1B9D0B75
:1018A0000E94C40B222091F041E0B6016C1B7D0B1D
:1018B000C701801B910B0E94C40B41E0B601601B65
:1018C000710BC7018C1B9D0B0E94C40BC017D10765
:1018D00054F4B7FCA5CF0150110982E0680E711CC9
:1018E000A60CB71C9DCFDF91CF911F910F91FF9058
:1018F000EF90DF90CF90BF90AF909F908F907F90B0
:101900006F905F904F903F902F9008958F929F928D
:10191000AF92BF92CF92DF92EF92FF920F931F93FD
:10192000CF93DF936D3089F0C0903D03D0903E039C
:101930006A30D1F410923C0310923B0388E0C80E49
:10194000D11CD0923E03C0923D0381E090E0DF9134
:10195000CF911F910F91FF90EF90DF90CF90BF90AC
:10196000AF909F908F90089500913B0310913C039E
:10197000E5E06E9FE0011124C455DF4F4801F12CD2
:10198000F5E0E12CFF1629F0CE010196FE01E4906E
:10199000EC01B12CA12C4E2D4170B6016A0D7B1DBE
:1019A000C4010E94C40BE694FFEFAF1ABF0A88E09F
:1019B000A816B10481F7F394EFEF8E1A9E0AF6E0B1
:1019C000FF12DECF0A5F1F4F10933C0300933B03CF
:1019D000BCCFDF92EF92FF920F931F93CF93DF93D1
:1019E0007C01D22E8B01040F111DEB0177FF02C089
:1019F000D0E0C0E0C8010134110514F080E490E0AB
:101A0000C817D9073CF44D2DBE01C7010E94C40B75
:101A10002196F0CFDF91CF911F910F91FF90EF9022
:101A2000DF900895EF92FF920F931F93CF93DF9370
:101A300010923A03C0913A03C83058F5109230031F
:101A400088E0C89F8001112478018FEFE81AF80A16
:101A500002511D4FD0913003D830B8F46D2F70E093
:101A6000F801E60FF71F20812A3008F029E083E013
:101A7000660F771F8A95E1F749E656E0C7010E9495
:101A8000670BDF5FD0933003E5CFCF5FC0933A039E
:101A9000D1CFDF91CF911F910F91FF90EF900895DB
:101AA000089590E080E008958F929F92AF92BF9248
:101AB0000F931F93CF93DF93CDB7DEB7A1970FB6E8
:101AC000F894DEBF0FBECDBF19A2423008F44AE041
:101AD0008E010F5D1F4F842E912CB12CA12CA501DE
:101AE00094010E94AA1BE62FB901CA01EA3044F50D
:101AF000E05DD801EE938D01232B242B252B79F764
:101B000090E080E0109769F0FD0101900020E9F776
:101B10003197AF014A1B5B0BBD018BEA97E00E9436
:101B20003A08A1960FB6F894DEBF0FBECDBFDF9185
:101B3000CF911F910F91BF90AF909F908F9008957C
:101B4000E95CD7CFFC0101900020E9F73197AF01A4
:101B5000481B590BBC018BEA97E00C943A080E9491
:101B600044096093C2027093C3028093C4029093AD
:101B7000C5021092D7021092D602EEEEF2E080E497
:101B8000DF011D928A95E9F743E050E063E170E0E0
:101B900087E393E00E94F51B1092360388E0809360
:101BA000D90281E0809341031092340383E0809353
:101BB00033030895CF92DF92EF92FF92CF93DF939A
:101BC0008AE690E090933C0380933B0384E190E0AD
:101BD00090933E0380933D03C090D602D090D702ED
:101BE0000D2C000CEE08FF084AE0C701B601F7FE15
:101BF0000DC06DE28BEA97E00E94860C662777277E
:101C0000CB016C197D098E099F094AE00E94540D91
:101C10000E944409C090C202D090C302E090C40266
:101C2000F090C5026C197D098E099F0928EE33E0FA
:101C300040E050E00E94AA1B790184E690E0909376
:101C40003C0380933B038FE190E090933E038093AD
:101C50003D032835324020F48FE992E00E94A20D26
:101C6000C7016CE370E00E94DB1B7C0190E080E028
:101C70004AE00E94540D8FE690E090933C038093DD
:101C80003B03CFE1D0E0D0933E03C0933D0381EA14
:101C900092E00E94A20D85E790E090933C03809330
:101CA0003B03D0933E03C0933D038AE0E816F10462
:101CB00020F48FE992E00E94A20DB70190E080E04D
:101CC0004AE0DF91CF91FF90EF90DF90CF900C949E
:101CD000540D0C94621B1F920F920FB60F92112499
:101CE0008F939F938091E1009091E100937F909377
:101CF000E10083FF0FC01092E90091E09093EB00A8
:101D00001092EC0092E39093ED0010925A0398E049
:101D10009093F00082FF22C093E09093E9009091AD
:101D2000F200992319F09AE39093E80090914B0305
:101D3000992341F090914B03915090934B03911153
:101D400001C05D9A90915903992341F090915903F4
:101D5000915090935903911101C0289A84FF18C0A3
:101D60008091E2008E7E81608093E2008091E100AC
:101D70008F7E8093E10080914C038E7E8061809302
:101D80004C039F918F910F900FBE0F901F9018954D
:101D900080FFF7CF8091E2008E7E80618093E20029
:101DA0008091E1008E7E8093E10080914C038E7ED5
:101DB0008160E5CF1F920F920FB60F921124CF9240
:101DC000DF92EF92FF920F931F932F933F934F93C6
:101DD0005F936F937F938F939F93AF93BF93EF9393
:101DE000FF93CF93DF93CDB7DEB76C97DEBFCDBF48
:101DF0001092E9008091E80083FF25C068E0CE01E1
:101E000045960E942D0882EF8093E8008D8987FF18
:101E100039C09091E80090FFFCCF982F907609F0A0
:101E200034C19E894F89588D2F89F88C911131C00A
:101E3000803861F580914A038093F1001092F1009F
:101E40008EEF8093E8006C960FB6F894DEBF0FBE5D
:101E5000CDBFDF91CF91FF91EF91BF91AF919F9156
:101E60008F917F916F915F914F913F912F911F9132
:101E70000F91FF90EF90DF90CF900F900FBE0F90DB
:101E80001F9018959EEF9093E800C7CF1092F10035
:101E9000D5CF913059F48111D3CF4130510581F61E
:101EA00080914A038D7F80934A03CACF933049F4CF
:101EB0008111C6CF4130510519F680914A038260E5
:101EC000F2CF953041F48091E80080FFFCCF20688C
:101ED0002093E300B5CF963009F0A9C00B8D1C8D7F
:101EE00022E01092E9001092480310924703F21288
:101EF0002EC010924603109245030E94FC071F82D9
:101F000099E09983FA8291E09E8390EA98879AEF0C
:101F100099872091470330914803275F3F4F3C83C7
:101F20002B838D831092E90010924803109247038F
:101F3000109346030093450349E050E0BE016F5FF4
:101F40007F4F80E00E94D6070E94FC0779CF109354
:101F50004603009345030E941307DC0112960D917E
:101F60001C910115110509F451C1D801ED91FC91A5
:101F70000480F581E02DBE016B5E7F4FC80109959D
:101F8000009709F03EC1F80100851185EACFF3E022
:101F9000FF120EC08F89882309F440C0823061F49B
:101FA00040E860E181E29AE00E945611811148CF39
:101FB00081E28093EB0047CF813029F440E86BE069
:101FC00085E19AE0F1CF833099F70E941307DC0195
:101FD0001296ED90FC908E010F5F1F4F6801E11487
:101FE000F10479F0D701ED91FC910680F781E02DA5
:101FF000B801C7010995080F111DF701E084F184AC
:10200000EECFD8011C92F60101900020E9F731973C
:10201000BF016C197D0940E0C601C6CF6FEF79E0C2
:10202000FB01449150E080E80E94D60709CF973029
:1020300009F4BECF983021F481E08093F10000CF05
:10204000993009F0FDCE837009F0B2CFEBE7F2E0F2
:1020500081E031E096E32191222371F08093E90041
:102060003093EB00DF0111972C912093EC009093BB
:10207000ED008F5F873079F78EE78093EA0010924A
:10208000EA008F8980935A03DBCE8B8D9C8D109252
:10209000E9001092480310924703909346038093FF
:1020A0004503898D811192C08E899D89913A49F4A9
:1020B000813209F07DCF47E050E065E071E080E0DB
:1020C000B3CF913209F074CF833269F48F89988D40
:1020D000B0E0A0E08093010190930201A09303017E
:1020E000B0930401ADCE803269F48091E80082FFA4
:1020F000FCCF67E085E091E00E942D088BEF809394
:10210000E8009ECE823209F09BCE8F8980930C012D
:10211000EEEFFFE7859194918B3F9C4D51F1E0E00C
:10212000F8E08091050190910601A0910701B0911E
:102130000801803B9440A105B105F1F480910C01A8
:1021400080FD1AC0EE3F8AE0F80789F587E797E738
:1021500091838083809160008093490388E19BE0B4
:102160000FB6F894A895809360000FBE909360001E
:1021700067CEEEEFFAE0D5CF808191818737974720
:1021800009F05ECEA8958091600088618093600020
:102190008091490380936000EE3F2AE0F20789F0C6
:1021A0008091FE0A9091FF0A9183808349CE8081BD
:1021B00091818737980751F29093FF0A8093FE0A26
:1021C000C5CF1092FF0A1092FE0A3ACE0E94130762
:1021D000DC0112960D911C910115110509F4E8CE50
:1021E000D801ED91FC910190F081E02DBE016B5E74
:1021F0007F4FC8010995811123CEF8010085118513
:10220000EBCF181619060CF41BCED2CEF1E0FF125C
:10221000BECE63E07AE004CF1F920F920FB60F920A
:1022200011242F933F938F939F93AF93BF938091EC
:10223000C7029091C802A091C902B091CA02309120
:10224000C60223E0230F2D3758F50196A11DB11DBD
:102250002093C6028093C7029093C802A093C9023C
:10226000B093CA028091CB029091CC02A091CD0292
:10227000B091CE020196A11DB11D8093CB02909327
:10228000CC02A093CD02B093CE02BF91AF919F91AB
:102290008F913F912F910F900FBE0F901F90189527
:1022A00026E8230F0296A11DB11DD2CFEF92FF9217
:1022B0000F931F93CF93DF93F82E192FE62E042F41
:1022C00081E0860F880F0E94A80783E00E94A8077C
:1022D000CF2DD12FEC0EFD2EF11CCE15DF05B9F060
:1022E00007FF13C0FE0184910E94A807182F80E009
:1022F0000E94A807812321968111EFCFDF91CF9112
:102300001F910F91FF90EF9008958881EDCF81E0AC
:10231000F5CFEBE5F7E01382128288EE93E0A0E0C0
:10232000B0E084839583A683B78385E892E09183A8
:1023300080838FEF9FEF95878487EBEAF7E0138226
:10234000128287E992E0918380830895CF93DF938F
:1023500000D000D01F92CDB7DEB7789484B58260EC
:1023600084BD84B5816084BD85B5826085BD85B539
:10237000816085BD80916E00816080936E001092B7
:102380008100809181008260809381008091810032
:1023900081608093810080918000816080938000C3
:1023A0008091910082608093910080919100816082
:1023B0008093910080919000816080939000809143
:1023C000C10084608093C1008091C10082608093CD
:1023D000C1008091C10081608093C1008091C300E1
:1023E00081608093C3008091C00082608093C000B0
:1023F0008091C20081608093C20080917A008460E5
:1024000080937A0080917A00826080937A00809134
:102410007A00816080937A0080917A00806880934E
:102420007A0010925A0310924A0310924C03809142
:10243000D70081608093D70080EA8093D80089B567
:10244000806189BD89B5826089BD09B400FEFDCF78
:1024500061E070E080E090E00E948C088091D800FC
:102460008F7C80618093D8008091E000807F809392
:10247000E0008091E1008E7E8093E1008DE080930A
:10248000E200559A209A81EC80937C0085B1806FA0
:1024900085B984B1877E84B984B1876E84B95E9A28
:1024A0005F988AB1806D8AB9769A6E9881B3806F91
:1024B00081BB899880B38D7080BB80E58CBD81E045
:1024C0008DBD85E090E00E949E0B5F9A85E090E0D4
:1024D0000E949E0B5E985C98ECE5F6E089E696E03B
:1024E00024912EBD00000DB407FEFDCF31968E174E
:1024F0009F07B1F75C9A81E8809364008091650042
:102500008160809365000E94C10B80E80E94B60B39
:102510008823A9F05C9885EA8EBD00000DB407FE03
:10252000FDCF5C9A2E982F982D9880916400806240
:102530008093640081E083BF889513BEFCCF84E064
:102540000E94B60B882309F448C02D9884E80E94A5
:10255000B60B8823E1F00E949C0B88EC90E00E946F
:102560009E0B2F9882E090E00E94621B8F3F29F023
:102570006FEF82E090E00E946A1B84EF91E00E947E
:102580009E0B2F9A84E80E94B60B8111FBCF84E149
:102590000E94B60B8823E1F00E949C0B88EC90E02F
:1025A0000E949E0B2E9882E090E00E94621B88237E
:1025B00029F060E082E090E00E946A1B84EF91E0E5
:1025C0000E949E0B2E9A84E10E94B60B8111FBCFD4
:1025D00088EC90E00E949E0BB2CF0E949C0B82E0A0
:1025E00090E00E94690E882309F48DC03E9A3F9ABC
:1025F00081E090E00E94690E082F0470902E81FF08
:1026000012C001112E98B1EF4B2E55245A9408E0B8
:1026100010E080E40E94B60B882309F477C02E9A5C
:102620002F9A0E949C0B82E390E00E949E0B0E94D6
:10263000A30B8111F8CF81E28093000180916400A7
:102640008E7F8093640080917A00806480937A000A
:1026500080917A0086FDFCCF00917800109179007E
:102660000E946708AB01BC01C801B0E0A0E0DC013A
:10267000992788278C019D01040F151F261F371FDE
:10268000C901B801209164002160209364006115A4
:1026900071058105910511F00E94591B0E94CB061E
:1026A00010923E0310923D0310923C0310923B03A4
:1026B00010923A0310913A031983103108F0F3C0D5
:1026C0001092300328E0129F8001112440913003C2
:1026D0004B83483008F0E2C0642F70E0FB01E00F4C
:1026E000F11FE554F94F249133E0660F771F3A95B7
:1026F000E1F749E656E0C8010E94670B5B815F5F26
:1027000050933003E3CF3E983F9872CF992031F039
:1027100024E04216510411F42E9A2F9881E00E9471
:102720008506920157FE04C0222733272419350954
:1027300027703327C20157FC0796A3E0959587952C
:10274000AA95E1F757FE05C00197A801421B530B5C
:102750009A01AC015695542F4427579547954552F9
:102760005C4FB0E0A0E03801621A730A8E3F6FEF51
:10277000960709F43AC07A0170E8E71AF10870E0A8
:1027800060E0FD01E455FA4F5F018F3F980779F053
:10279000F501E60FF71FE491F0E06F01022E01C092
:1027A000CC0C0A94EAF7F701D488CD28C48A211505
:1027B000310599F0F501E60FF71FE4916A01C60EA5
:1027C000D71EF0E01F01062C02C0359427940A940E
:1027D000E2F7F60184882828248A6F5F7F4FFFEF95
:1027E000EF1AFF0A6835710581F60196A85ABF4FA6
:1027F00040585F4FA03BB10509F0B8CF0E94C10B14
:102800008FE090E00E949E0B2FEF421A520A39E1AE
:102810004316510409F0FDCE992011F02F9A2D98FE
:1028200080E991E00E949E0B0E949C0B81E090E069
:102830000E94690E80FFF7CE8AE090E00E94690E48
:102840009FEF980F9E3F08F0EECE22E330E03093EA
:102850003C0320933B0328E330E030933E03209376
:102860003D030BE010E01A830983682F8BEA97E0A1
:102870000E94860C89819A810E94690E09811A81C1
:102880000F5F1F4F1A8309830131110571F70E94F1
:10289000C10B88EE93E00E949E0BC5CE09810F5FAD
:1028A00000933A0307CF10923A0310913A03198329
:1028B0001530C8F420E1129F80011124095E1F4FDA
:1028C0004981465F63E170E0C8010E94340B498191
:1028D000415F63E270E0C8010E94340B09810F5F21
:1028E00000933A03E2CF0E94C10B0E944409609317
:1028F000D1027093D2028093D3029093D4026B01E1
:102900007C0110EDC10E17E0D11EE11CF11C0E94EC
:1029100044096C157D058E059F05C8F300E110E0A4
:102920001A83098320E040E161E370E089819A81A4
:102930000E94E90C09811A810F5F1F4F1A830983D6
:102940000037110579F74BE563E370E082E190E031
:102950000E9494064BE56FE370E082E190E00E94F4
:10296000940621E04DE063E370E082E190E00E9494
:10297000E90C21E04DE063E370E08CE690E00E941A
:10298000E90C85E190E090933C0380933B0326E3C0
:1029900030E030933E0320933D0383EA92E00E94AF
:1029A000A20D85E390E090933C0380933B0346E3C4
:1029B00050E050933E0340933D0389EA92E00E9429
:1029C000A20D8AE490E090933C0380933B0366E37E
:1029D00070E070933E0360933D038DEA92E00E94A5
:1029E000A20D89E590E090933C0380933B0386E33E
:1029F00090E090933E0380933D0380EB92E00E9431
:102A0000A20D0E94C10B0E9444096093D1027093F1
:102A1000D2028093D3029093D4026B017C01A0ED8B
:102A2000CA0EA7E0DA1EE11CF11C0E9444096C15D5
:102A30007D058E059F05C8F30E94AF0D98E0492ED5
:102A4000512C26E4222E312C83E1882E0E94440949
:102A50008091CF02882349F01092CF0260E070E0AD
:102A6000672BA1F30E940000EFCF8091D002B62F18
:102A7000B81B8B2F90910001B91740F48F5F891715
:102A800068F7E1E0E3BF889513BEE8CFF1E0F0938B
:102A9000CF026093D00200914303109144030F5F73
:102AA0001F4F10934403009343038091400380938E
:102AB0003F030E94A30B80934003C8016AE070E0CB
:102AC0000E94DB1B892B31F48091420301E08027B7
:102AD000809342030E94CB0621E040E470E060E076
:102AE00082E490E00E94E90C20E042E35AE070E0CA
:102AF00060E08AE490E00E94670B21E042E35AE044
:102B000070E060E08AE590E00E94670B22E042E31B
:102B10005AE070E060E08AE690E00E94670B309235
:102B20003C0320923B0324E130E030933E032093AA
:102B30003D0384EB92E00E94A20D30923C03209270
:102B40003B034FE150E050933E0340933D038BEB3A
:102B500092E00E94A20D10923A0300913A03098379
:102B6000033008F067C0802F90E09C01295C3C4F47
:102B70007901D9018C91833109F457C080913603D2
:102B8000081305C080914203882309F44EC0B9811F
:102B9000E4E1BE9F800111246801F9E4CF0ED11C4D
:102BA0004AE06CE270E0C6010E9494064AE06FE3DE
:102BB00070E0C6010E94940621E04AE061E370E003
:102BC000C8018C5B9F4F0E94E90C21E04AE061E361
:102BD00070E0C801895A9F4F0E94E90C41E061E30F
:102BE00070E0C6010E94E20B580122E5A20EB11C62
:102BF00042E061E370E0C5010E94E20B44E06AE359
:102C000070E0C5010E94E20B48E06AE370E0C60193
:102C10000E94E20BD7012C914BE357E06EE270E08B
:102C2000C8018A5B9F4F0E94670B09810F5F009369
:102C30003A0393CF109235038091340381110FC072
:102C400088E00E94AB0B882351F0809141038230D1
:102C500031F484E08093410311E0109334038091B8
:102C6000340381110EC088E00E94AB0B882349F029
:102C700080914103853029F41092410321E0209393
:102C8000340380913403811114C084E00E94AB0BA3
:102C9000882379F080914103823059F431E03093F8
:102CA0003403009133030983011143C486E0809308
:102CB000410380E20E94AB0B882319F011E01093CE
:102CC000350380E40E94AB0B882319F082E08093E7
:102CD000350380E80E94AB0B882319F083E08093D2
:102CE000350380E10E94AB0B882319F084E08093C8
:102CF000350380913403813061F488E00E94AB0B8E
:102D0000811107C084E00E94AB0B811102C01092B8
:102D10003403E0914103E73008F0CAC0F0E0ED561B
:102D2000F94E0C94EF1B9A16F917601884182F1996
:102D30007F19491A90903103A92DB0E03D01660C2E
:102D4000771CF301EA0FFB1F9F012F5B3D4FF90139
:102D50000191FD83EC830B83809130039D0104E09E
:102D6000220F331F0A95E1F72F5E3E4F40912F034C
:102D700018E0419FA001112490912E03490F511D8D
:102D8000790110E000E090E0BA0162517D4F7A8352
:102D900069837B81071770F5EC81FD818081680173
:102DA000F3E0CC0CDD1CFA95E1F769817A81C60E5F
:102DB000D71E70E060E06817B8F45B01AA0CBB1C7A
:102DC000AA0CBB1CAE0CBF1CF501B080F1E0BF1219
:102DD00008C05601A60EB71EF501B080F8E0BF127C
:102DE0009F5F6F5F7F4FE7CF0F5F1F4F6FEFE61A59
:102DF000F60ACFCF923008F041C090933203909101
:102E00003203913009F06AC02091ED0230E0F901FF
:102E1000EE0FFF1FE20FF31FEF5BFD4F919144E0B8
:102E2000220F331F4A95E1F72F5E3E4F4091EC028F
:102E3000A8E04A9FA00111246091EB02460F511DAA
:102E400042515D4F1982B981B91721F1808170E03B
:102E500060E06817B8F4DB01AA0FBB1FAA0FBB1F05
:102E6000A20FB31FAC91A13031F4DA01A60FB71F46
:102E70001C9118501C936F5F7F4FEBCF71E07093E4
:102E80003203BDCF09810F5F09832F5F3F4F485F3A
:102E90005F4FD9CF80933003198110933A03E091AB
:102EA0003603F0E0E95CFC4F908221E0209341037F
:102EB0008091D6029091D702893C910544F08F35DC
:102EC00021E092070CF02AC33CE03093D9020E9423
:102ED000120D0E94DA0D0E94C10BC0CDF0E0E0E0BF
:102EE000A60DB71DAF5BBD4F6D016FEFC61AD60AB9
:102EF00042515D4F5D0172E0A70EB11C8B81E81756
:102F000038F5D6018C918F01B3E0000F111FBA95EF
:102F1000E1F7040F151F70E060E06817A8F47B016B
:102F2000EE0CFF1CEE0CFF1CE20EF31ED7019C9171
:102F3000913039F4D5019C917801E60EF71ED70146
:102F40009C936F5F7F4FE9CF31962F5F3F4FD6CF76
:102F500080E1EBEDF2E011928A95E9F74EEE52E056
:102F600060E030E020E090E080E070E0FA01E80FFF
:102F7000F91FE081E1117F5F019688309105B1F77B
:102F8000783031F4F901E552FD4F01E0008361E052
:102F90002F5F3F4F485F5F4F2830310521F790E0AA
:102FA00080E0FC01E251FD4F39E020E0315029F092
:102FB000408141112F5F3896F9CF283031F4FC0160
:102FC000E552FD4F11E0108761E0019688309105D0
:102FD00041F788E08093300380933A032093DA022C
:102FE0006093320383E0613009F05FCF8093410347
:102FF0005FCF809137038331A1F080913903833112
:1030000009F05AC080913803833119F061E0609370
:10301000360380913703833111F01092360382E03A
:10302000E5CF80913803833141F7809139038331B3
:1030300021F7C090D902D12C3FEFC31AD30A0D2C2F
:10304000000CEE08FF080E940A1BA70196010E94CF
:10305000781B60933703C090D902D12C4FEFC41A6C
:10306000D40A0D2C000CEE08FF080E940A1BA701D1
:1030700096010E94781B609338038091370386176E
:1030800051F3C090D902D12C5FEFC51AD50A0D2C8F
:10309000000CEE08FF080E940A1BA70196010E947F
:1030A000781B6093390390913703691751F390911E
:1030B0003803691731F3A1CF82E080933603A2CFA2
:1030C0009091360380913503813071F4892F8150BE
:1030D00008F4892FE82FF0E0E95CFC4F20812331D0
:1030E000B1F380933603E4CE823009F0E1CE892F2C
:1030F0008F5F833009F4892FE82FF0E0E95CFC4F03
:1031000020812331A9F3EDCF1092D802E091D802AB
:10311000E83008F04FC0F0E0E552FD4F808181308B
:1031200009F042C08091D6029091D7020A969093FE
:10313000D7028093D60210821092D5020091D50258
:103140000983083088F50E9444096093D102709386
:10315000D2028093D3029093D4026B017C0114E1DC
:10316000C10ED11CE11CF11C0E9444096C157D05A7
:103170008E059F05C8F38091D80228E0829FC00188
:10318000112482519D4F0981800F911DDC011C92F9
:103190000E94120D0E94DA0D0E94C10B8091D5028F
:1031A0008F5F8093D502CACF8091D8028F5F8093C2
:1031B000D802ACCF1092D502E091D502E83008F0E9
:1031C00074CEF0E0ED51FD4F8081813009F041C0B7
:1031D0008091D6029091D7020A969093D70280935D
:1031E000D60210821092D8020091D80209830830CA
:1031F00080F50E9444096093D1027093D2028093BB
:10320000D3029093D4026B017C0114E1C10ED11C56
:10321000E11CF11C0E9444096C157D058E059F057B
:10322000C8F38091D502098128E0029FF0011124A2
:10323000E251FD4FE80FF11D10820E94120D0E9415
:10324000DA0D0E94C10B8091D8028F5F8093D80263
:10325000CBCF8091D5028F5F8093D502ADCFE09127
:103260003603F0E0E95CFC4F6081609331038082BB
:10327000862F90E0FC01EE0FFF1FE80FF91FEF5BB8
:10328000FD4F119119837091300334E0880F991F1D
:103290003A95E1F78F5E9E4F4EEE52E010E02981A5
:1032A0001217E9F0708130E020E0271798F4D90177
:1032B000AA0FBB1FAA0FBB1FA80FB91FAC91A1304B
:1032C00031F4DA01A20FB31F0C91085F0C932F5F4A
:1032D0003F4FEBCF1F5F0196485F5F4FE0CF70938A
:1032E000300310933A036093ED021092EC021092B7
:1032F000EB0210922F0310922E0385E077CE3091CF
:1033000035033983332309F4B7C08091ED0290E08F
:10331000FC01EE0FFF1FE80FF91FEF5BFD4F51910E
:103320004091300334E0880F991F3A95E1F78F5EA2
:103330009E4F2091EC0268E0269F9001112460913D
:10334000EB02260F311D22513D4F10E01517E9F019
:10335000408170E060E0641798F4DB01AA0FBB1FA6
:10336000AA0FBB1FA80FB91FAC91A13031F4D9012E
:10337000A60FB71F0C9108500C936F5F7F4FEBCFD8
:103380001F5F0196285F3F4FE1CF8091310390E0AE
:10339000FC01EE0FFF1FDF01A80FB91FAF5BBD4F90
:1033A0005C9120912E0360912F0379817130C9F5D2
:1033B000615008F041C010922F03BC0104E0660F79
:1033C000771F0A95E1F76F5E7E4F20912F03A8E0EB
:1033D0002A9F90011124A0912E032A0F311D225102
:1033E0003D4F1982E80FF91FEE5BFD4FB9815B1766
:1033F00009F43EC0408190E080E0841788F5DC014C
:10340000AA0FBB1FAA0FBB1FA60FB71FAC91A130FD
:1034100031F4D901A80FB91F1C91185F1C930196B4
:10342000ECCF0981023081F46F5F9201251B3109D5
:103430006217130609F01CF460932F03BECF28E037
:10344000251B20932F03B9CF1981133009F081C0B8
:10345000215018F020932E03B0CF10922E03ADCF41
:1034600009810F5F09836F5F7F4F285F3F4FBECF9A
:103470004093300350933A0380912F038093EC02E2
:1034800080912E038093EB02809131038093ED02B3
:103490000FCD0E94DA0D10923A0310913A031430C6
:1034A00078F4412F4D5F20E1129FC00111246DE09F
:1034B00070E007960E94340B1F5F10933A03EDCF24
:1034C00010923A0300913A03033078F4402F495F99
:1034D00010E1019FC001112463E270E007960E9491
:1034E000340B0F5F00933A03EDCF0E94C10B88E0CD
:1034F0000E94B60B8111FBCF84E00E94B60B8111B4
:10350000F6CF88E00E94B60B811105C084E00E94CE
:10351000B60B8823B1F30E94AF0DCACC853F914012
:1035200024F480E18093D902D2CC52E15093D902A5
:10353000CECC43E050E063E170E087E393E00E948B
:10354000F51B098101500093330311E010934103EF
:10355000B0CB3981343009F030CF61E0620F609335
:103560002E0311967C919201271B310962171306D5
:1035700009F00CF422CF28E0271B6CCF8F929F928A
:10358000AF92BF92CF92DF92EF92FF92CF93DF93F1
:10359000EC01688179818A819B81611571058105C2
:1035A000910521F464E279ED8BE597E02DE133EFAD
:1035B00041E050E00E94781B49015A019B01AC0197
:1035C000A7EAB1E40E94971B6B017C01ACEEB4EF5B
:1035D000A50194010E94A51BC60ED71EE81EF91E68
:1035E000F7FE06C081E0C81AD108E10880E8F80AB1
:1035F000C882D982EA82FB82C701B6019F77DF9138
:10360000CF91FF90EF90DF90CF90BF90AF909F90C1
:103610008F9008958F929F92AF92BF92CF92DF9238
:10362000EF92FF9260910D0170910E0180910F0158
:1036300090911001611571058105910521F464E2F5
:1036400079ED8BE597E02DE133EF41E050E00E940A
:10365000781B49015A019B01AC01A7EAB1E40E9421
:10366000971B6B017C01ACEEB4EFA50194010E94A5
:10367000A51BC60ED71EE81EF91EF7FE06C081E088
:10368000C81AD108E10880E8F80AC0920D01D0926A
:103690000E01E0920F01F0921001C701B6019F7771
:1036A000FF90EF90DF90CF90BF90AF909F908F9062
:1036B000089560930D0170930E0180930F01909314
:1036C00010010895F999FECF92BD81BDF89A99270E
:1036D00080B50895262FF999FECF1FBA92BD81BDFE
:1036E00020BD0FB6F894FA9AF99A0FBE0196089584
:1036F000052E97FB1EF400940E948F1B57FD07D0E8
:103700000E94AA1B07FC03D04EF40C948F1B50950B
:103710004095309521953F4F4F4F5F4F08959095BD
:103720008095709561957F4F8F4F9F4F08950E94B0
:10373000CC1BA59F900DB49F900DA49F800D911D53
:1037400011240895B7FF0C94971B0E94971B821BAE
:10375000930B0895A1E21A2EAA1BBB1BFD010DC0FD
:10376000AA1FBB1FEE1FFF1FA217B307E407F50731
:1037700020F0A21BB30BE40BF50B661F771F881F0D
:10378000991F1A9469F760957095809590959B01A3
:10379000AC01BD01CF010895A29FB001B39FC0014C
:1037A000A39F700D811D1124911DB29F700D811D6D
:1037B0001124911D0895AA1BBB1B51E107C0AA1F2C
:1037C000BB1FA617B70710F0A61BB70B881F991FC2
:1037D0005A95A9F780959095BC01CD010895EE0FFB
:1037E000FF1F0590F491E02D0994DC0101C06D9359
:0C37F00041505040E0F70895F894FFCFDE
:1037FC0010FFFFFFFF00E1000000000000010000CF
:10380C0000010000000000000000000000000000AB
:10381C00000101000000000000000000000000009A
:10382C000001010100000000000000000000000089
:10383C000001010101000000000000000000000078
:10384C00000100000001000000000000000000006A
:10385C000001000000010000000100000000000059
:10386C000001000000010000000100000001000048
:10387C000001010000010100000000000000000038
:10388C000001010100010101000101010000000023
:10389C000000010000010100000000000000000019
:1038AC000001000000010100000000000000000009
:1038BC0000010100000100000000000000000000F9
:1038CC0000010100000001000000000000000000E9
:1038DC0000000001000000010001010100000000D7
:1038EC0000010000000100000001010100000000C7
:1038FC0000010101000100000001000000000000B7
:10390C0000010101000000010000000100000000A6
:10391C000001000100010101000100010000000094
:10392C000000010000010101000001000000000086
:10393C000001010502010103010104010101020260
:10394C000103020104020202050303050202030241
:10395C00020302020302020303030403030403032E
:10396C000403030403030703030600C18081000062
:10397C0000000000002707BF0848073D078E074CD2
:10398C00076A0700000000860C3A08510D500D30F4
:10399C00002E004672616E6B0076616E00646500ED
:1039AC0056656E0053636F72653A0054696D653AE3
:0239BC00000009
:00000001FF
